:020000040000FA
:040000003DEF7EF062
:10FC5900800F810F820F830F840F890F8A0F8B0FFB
:10FC69008C0F8D0F920F930F940F950F960F120A09
:10FC790002590EF66EFC0EF76E000EF86E00EE01DC
:10FC8900F010EE21F00900F5CFEEFFE550E150FA52
:10FC9900E1000EF86E000152EF7EF021C02EF02037
:10FCA900C02FF01FC030F02E0E226E000E236E5EA4
:10FCB900EC7FF0316E2F0E226E000E236E5EEC7F0C
:10FCC900F0316E300E226E000E236E5EEC7FF03145
:10FCD9006E2E0E226E000E236E010E246EC8EC7E6F
:10FCE900F0316E0B0E2D6E260E2C6E5E0EE82EFE7A
:10FCF900D72C2EFCD72D2EFAD72E0E226E000E23CE
:10FD09006E000E246EC8EC7EF0316E300E226E004D
:10FD19000E236E010E246EC8EC7EF0316E0B0E2D93
:10FD29006E260E2C6E5E0EE82EFED72C2EFCD72DDD
:10FD39002EFAD7300E226E000E236E000E246EC8E6
:10FD4900EC7EF0316E2F0E226E000E236E010E2412
:10FD59006EC8EC7EF0316E0B0E2D6E260E2C6E5E8B
:10FD69000EE82EFED72C2EFCD72D2EFAD72F0E22D9
:10FD79006E000E236E000E246EC8EC7EF0316E6D9F
:10FD8900EF7EF000EF00F0010E2B6E22502310D809
:10FD9900B4D1EF7EF0D3EF7EF0E4EF7EF022C0D94C
:10FDA900FF23C0DAFFDF30E832E832070B256E07A0
:10FDB9000E2564E2EF7EF0E4EF7EF047EF7FF0007E
:10FDC9000E2B6E5CEF7FF022C0D9FF23C0DAFFDF74
:10FDD90030E832E832070B256E010E266E252AF827
:10FDE900EF7EF0D8902636252EF6EF7EF02650FFCE
:10FDF9000A276E22C0D9FF23C0DAFFDF50070B287C
:10FE09006E2850020D0B0EF324D96E000EF420DA81
:10FE19006EDECF29F0DDCF2AF029C0D9FF2AC0DA5A
:10FE2900FF2750DF165CEF7FF022C0D9FF23C0DA2D
:10FE3900FFDF30E832E832070B256E010E266E250A
:10FE49002A29EF7FF0D8902636252E27EF7FF0223A
:10FE5900C0D9FF23C0DAFFDF50070B276E275002F6
:10FE69000D0B0EF324D96E000EF420DA6EDECF28C6
:10FE7900F0DDCF29F028C0D9FF29C0DAFF2650DFED
:10FE8900125CEF7FF02450256E266A2650000AD8AE
:10FE9900B451EF7FF0E4EF7EF02550000AD8B4E8C2
:10FEA900EF7EF0010AD8B419EF7FF0E4EF7EF02B72
:10FEB900501200010E2A6E22502310D8B467EF7F2A
:10FEC900F069EF7FF07AEF7FF022C0D9FF23C0DA23
:10FED900FFDF30E832E832070B246E070E2464781E
:10FEE900EF7FF07AEF7FF0DDEF7FF0000E2A6EFEF4
:10FEF900EF7FF022C0D9FF23C0DAFFDF30E832E814
:10FF090032070B246E010E256E242A8EEF7FF0D85E
:10FF1900902536242E8CEF7FF02550FF0A266E227D
:10FF2900C0D9FF23C0DAFFDF50070B276E27500225
:10FF39000D150EF324D96E000EF420DA6EDECF28EB
:10FF4900F0DDCF29F028C0D9FF29C0DAFF2650DF1C
:10FF590016FEEF7FF022C0D9FF23C0DAFFDF30E8B9
:10FF690032E832070B246E010E256E242ABFEF7F7B
:10FF7900F0D8902536242EBDEF7FF022C0D9FF237B
:10FF8900C0DAFFDF50070B266E2650020D150EF35F
:10FF990024D96E000EF420DA6EDECF27F0DDCF28EB
:10FFA900F027C0D9FF28C0DAFF2550DF12FEEF7F06
:10FFB900F022C0D9FF23C0DAFFDFBCE6EF7FF0E90A
:10FFC900EF7FF0010EEAEF7FF0000E246E256A251F
:10FFD90050000AD8B4F3EF7FF07AEF7FF024500095
:10FFE9000AD8B47EEF7FF0010AD8B4AFEF7FF07A78
:07FFF900EF7FF02A50120017
:020000040020DA
:08000000FFFFFFFFFFFFFFFF00
:020000040030CA
:0E000000FF02091EFF8181FF0FC00FE00F40BD
:00000001FF
